:100000000C9436000C945E000C945E000C945E0020
:100010000C945E000C945E000C945E000C945E00E8
:100020000C945E000C945E000C945E000C945E00D8
:100030000C945E000C945E000C945E000C945E00C8
:100040000C9476020C945E000C9444020C941E02F4
:100050000C945E000C945E000C945E000C945E00A8
:100060000C945E000C945E00C002660411241FBE56
:10007000CFEFD8E0DEBFCDBF11E0A0E0B1E0E4E813
:10008000FDE002C005900D92AA38B107D9F722E031
:10009000AAE8B1E001C01D92AA33B207E1F710E06F
:1000A000C5E3D0E004C02197FE010E946C04C43374
:1000B000D107C9F70E94FB020C94B5060C9400000E
:1000C000CF92DF92EF92FF920F931F93CF93DF9324
:1000D0006C017A018B01C0E0D0E0CE15DF0589F01C
:1000E000D8016D918D01D601ED91FC910190F081C7
:1000F000E02DC6010995892B11F47E0102C02196DD
:10010000ECCFC701DF91CF911F910F91FF90EF903E
:10011000DF90CF900895FC01918D828D981761F04A
:10012000828DDF01A80FB11D5D968C91928D9F5F2E
:100130009F73928F90E008958FEF9FEF0895FC01D9
:10014000918D828D981731F0828DE80FF11D858D8C
:1001500090E008958FEF9FEF0895FC01918D228D1F
:10016000892F90E0805C9F4F821B91098F739927A4
:10017000089583E991E00E94AD0021E0892B09F404
:1001800020E0822F0895FC01848DDF01A80FB11DAE
:10019000A35ABF4F2C91848D90E001968F739927BD
:1001A000848FA689B7892C93A089B1898C918064AA
:1001B0008C93938D848D981306C00288F389E02D6B
:1001C00080818F7D80830895EF92FF920F931F931C
:1001D000CF93DF93EC0181E0888F9B8D8C8D9813FA
:1001E00005C0E889F989808185FD24C0F62E0B8D34
:1001F00010E00F5F1F4F0F731127E02E8C8DE81258
:100200000CC00FB607FCFACFE889F989808185FF19
:10021000F5CFCE010E94C300F1CF8B8DFE01E80F18
:10022000F11DE35AFF4FF0820B8FEA89FB89808131
:10023000806207C0EE89FF896083E889F98980813F
:100240008064808381E090E0DF91CF911F910F91D6
:10025000FF90EF900895CF93DF93EC01888D882372
:10026000C9F0EA89FB89808185FD05C0A889B98923
:100270008C9186FD0FC00FB607FCF5CF808185FFFE
:10028000F2CFA889B9898C9185FFEDCFCE010E946C
:10029000C300E7CFDF91CF91089580E090E0892BF4
:1002A00029F00E94B90081110C94000008958E304D
:1002B00008F08E508770806480937C0080917A0073
:1002C000806480937A0080917A0086FDFCCF8091D3
:1002D00078002091790090E0922B08953FB7F89430
:1002E00080918F0190919001A0919101B091920124
:1002F00026B5A89B05C02F3F19F00196A11DB11D81
:100300003FBFBA2FA92F982F8827820F911DA11DBB
:10031000B11DBC01CD0142E0660F771F881F991FF8
:100320004A95D1F70895CF93DF93009779F0FC01B8
:1003300001900020E9F73197AF01481B590BBC0130
:1003400083E991E00E946000EC0102C0C0E0D0E0CF
:1003500042E050E066E171E083E991E00E946000D4
:100360008C0F9D1FDF91CF9108950E946906EF9237
:10037000FF920F931F93CF93DF93EC017B018A01D0
:1003800088819981009729F02A813B8124173507BC
:10039000F8F4B8016F5F7F4F0E949F05009759F0F6
:1003A000998388831B830A832C813D81232B81F4CD
:1003B000FC0110820DC088819981009711F00E9484
:1003C0000705198218821D821C821B821A8207C0AF
:1003D0001D830C83B701888199810E947706CE0125
:1003E000DF91CF911F910F91FF90EF9008950097AB
:1003F00071F0FC0101900020E9F73197AF01481B33
:10040000590BBC0180E392E00E94B70114C08091B7
:10041000300290913102009711F00E94070510926E
:100420003102109230021092350210923402109272
:1004300033021092320280E392E008951F920F92ED
:100440000FB60F9211242F933F934F935F936F93A7
:100450007F938F939F93AF93BF93EF93FF9383E922
:1004600091E00E94C300FF91EF91BF91AF919F91E6
:100470008F917F916F915F914F913F912F910F904D
:100480000FBE0F901F9018951F920F920FB60F92EC
:1004900011242F938F939F93EF93FF93E091A301E8
:1004A000F091A4018081E091A901F091AA0182FD5F
:1004B00012C090818091AC018F5F8F732091AD014C
:1004C000821751F0E091AC01F0E0ED56FE4F958FB0
:1004D0008093AC0101C08081FF91EF919F918F913A
:1004E0002F910F900FBE0F901F9018951F920F9293
:1004F0000FB60F9211242F933F938F939F93AF9337
:10050000BF9380918B0190918C01A0918D01B0914E
:100510008E0130918A0123E0230F2D3720F40196BC
:10052000A11DB11D05C026E8230F0296A11DB11D16
:1005300020938A0180938B0190938C01A0938D016D
:10054000B0938E0180918F0190919001A0919101C3
:10055000B09192010196A11DB11D80938F019093DE
:100560009001A0939101B0939201BF91AF919F919F
:100570008F913F912F910F900FBE0F901F90189564
:10058000E3E9F1E01382128288EE93E0A0E0B0E0AC
:1005900084839583A683B7838AE091E091838083E7
:1005A00085EC90E09587848784EC90E09787868738
:1005B00080EC90E0918B808B81EC90E0938B828B30
:1005C00082EC90E0958B848B86EC90E0978B868B09
:1005D000118E128E138E148EE0E3F2E011821082DF
:1005E000138212821582148240E050E068E171E0CB
:1005F000CF010C94B701789484B5826084BD84B532
:10060000816084BD85B5826085BD85B5816085BD0D
:1006100080916E00816080936E00109281008091C5
:10062000810082608093810080918100816080934D
:100630008100809180008160809380008091B10072
:1006400084608093B1008091B00081608093B0009D
:1006500080917A00846080937A0080917A00826031
:1006600080937A0080917A00816080937A008091F3
:100670007A00806880937A001092C100E091A30113
:10068000F091A40182E08083E0919F01F091A001AC
:100690001082E091A101F091A2018FEC8083109271
:1006A000AB01E091A701F091A80186E08083E09181
:1006B000A501F091A601808180618083E091A50170
:1006C000F091A601808188608083E091A501F0917E
:1006D000A601808180688083E091A501F091A60148
:1006E00080818F7D808389E191E00E94930188E180
:1006F00091E00E94F70180E00E9457018C0181E0A7
:100700000E945701EC0182E00E9457016C0183E0D6
:100710000E9457017C01C801895E9340469720F4EE
:100720008EE191E00E94F701CE01895E93404697E9
:1007300020F480E291E00E94F701C601895E9340B7
:10074000469720F482E291E00E94F701C701895E9A
:100750009340469720F484E291E00E94F701C8019B
:1007600081589240439720F486E291E00E94F7017D
:10077000CE0181589240439720F488E291E00E9494
:10078000F701C60181589240439720F48AE291E034
:100790000E94F701C70181589240439720F48CE2F0
:1007A00091E00E94F701C80189519140439720F4DC
:1007B0008EE291E00E94F701CE018951914043976A
:1007C00020F480E391E00E94F701C6018951914035
:1007D000439720F482E391E00E94F701C701895119
:1007E0009140439720F484E391E00E94F701015A7D
:1007F00011090D31110520F486E391E00E94F70103
:10080000C15AD1096D9720F488E391E00E94F70165
:1008100021EAC21AD1088DE1C816D10420F48AE376
:1008200091E00E94F701E1EAEE1AF108FDE1EF160E
:10083000F10420F48CE391E00E94F701409134022E
:100840005091350241155105C1F06091300270910F
:100850003102FB018081882381F083E991E00E94CD
:10086000600042E050E066E171E083E991E00E94BF
:1008700060008EE391E00E9493010E946E014B01A3
:100880005C0182E3C82ED12CE12CF12C0E946E0178
:10089000DC01CB0188199909AA09BB09883E93405C
:1008A000A105B10558F0F1E0CF1AD108E108F1082F
:1008B00028EE820E23E0921EA11CB11CC114D104AB
:1008C000E104F10419F70E944D0111CF809130022B
:1008D000909131020C940705EE0FFF1F0590F491E3
:1008E000E02D0994CF93DF938230910510F482E0DC
:1008F00090E0E0913802F091390220E030E0C0E071
:10090000D0E0309711F14081518148175907C0F06C
:100910004817590761F482819381209719F09B83CE
:100920008A832BC0909339028093380226C0211508
:10093000310519F04217530718F49A01BE01DF017F
:10094000EF010280F381E02DDCCF2115310509F1A3
:10095000281B390B2430310590F412968D919C910F
:1009600013976115710521F0FB019383828304C005
:100970009093390280933802FD01329644C0FD0104
:10098000E20FF31F81939193225031092D933C93F1
:100990003AC02091360230913702232B41F4209146
:1009A00002013091030130933702209336022091E7
:1009B0000001309101012115310541F42DB73EB7F9
:1009C0004091040150910501241B350BE091360242
:1009D000F0913702E217F307A0F42E1B3F0B281704
:1009E000390778F0AC014E5F5F4F2417350748F0A8
:1009F0004E0F5F1F509337024093360281939193BD
:100A000002C0E0E0F0E0CF01DF91CF9108950F93B5
:100A10001F93CF93DF93009709F48CC0FC013297AA
:100A200013821282009138021091390201151105CA
:100A300081F420813181820F931F20913602309101
:100A400037022817390779F5F0933702E093360219
:100A500071C0D80140E050E0AE17BF0750F41296C5
:100A60002D913C911397AD012115310509F1D90163
:100A7000F3CF9D01DA013383228360817181860F78
:100A8000971F8217930769F4EC0128813981260F9B
:100A9000371F2E5F3F4F318320838A819B81938351
:100AA0008283452B29F4F0933902E093380242C047
:100AB0001396FC93EE931297ED01499159919E0183
:100AC000240F351FE217F30771F480819181840FA1
:100AD000951F029611969C938E9382819381139613
:100AE0009C938E931297E0E0F0E0D80112968D91DE
:100AF0009C911397009719F0F8018C01F6CF8D9116
:100B00009C9198012E5F3F4F820F931F20913602D8
:100B1000309137022817390769F4309729F4109279
:100B200039021092380202C01382128210933702E7
:100B300000933602DF91CF911F910F910895A0E0AD
:100B4000B0E0E5EAF5E00C948206EC01009721F4B0
:100B5000CB010E947204B8C0FC01E60FF71F9C0194
:100B600022503109E217F30708F4ACC0D9010D9106
:100B70001C91119706171707B0F00530110508F4FE
:100B80009FC0C80104978617970708F499C00250C0
:100B90001109061B170B019311936D937C93CF01E1
:100BA0000E9407058DC05B01A01AB10A4C01800E9E
:100BB000911EA0913802B091390240E050E0E12C42
:100BC000F12C109709F44AC0A815B905D1F56D901C
:100BD0007C901197630182E0C80ED11CCA14DB041B
:100BE00080F1A3014A195B096A0182E0C80ED11C99
:100BF0001296BC9012971396AC91B5E0CB16D10427
:100C000040F0B282A38351834083D9016D937C93DA
:100C10000AC00E5F1F4FC301800F911FF90191831E
:100C20008083EB2DFA2FE114F10431F0D7011396F4
:100C3000FC93EE93129744C0F0933902E09338028C
:100C40003FC08D919C9111974817590708F4AC014A
:100C50007D0112960D90BC91A02DB3CF80913602EC
:100C60009091370288159905E1F446175707C8F4A3
:100C70008091000190910101009741F48DB79EB7DA
:100C80004091040150910501841B950BE817F90769
:100C9000C8F4F0933702E0933602F9017183608360
:100CA0000FC0CB010E9472047C01009759F0A8018B
:100CB000BE010E946E06CE010E940705C70104C056
:100CC000CE0102C080E090E0CDB7DEB7EEE00C943C
:100CD0009E0681E090E0F8940C94B506FB01DC01DF
:100CE00002C001900D9241505040D8F70895FB0189
:100CF000DC0101900D920020E1F708952F923F92C0
:100D00004F925F926F927F928F929F92AF92BF921B
:100D1000CF92DF92EF92FF920F931F93CF93DF93C7
:100D2000CDB7DEB7CA1BDB0B0FB6F894DEBF0FBE24
:100D3000CDBF09942A88398848885F846E847D8471
:100D40008C849B84AA84B984C884DF80EE80FD8073
:100D50000C811B81AA81B981CE0FD11D0FB6F894E9
:100D6000DEBF0FBECDBFED01089510E0C5E3D0E0BA
:100D700004C0FE010E946C042196C633D107C9F756
:040D8000F894FFCF15
:100D840000003A02800000000000E4006000AD00B2
:100D94008B009F002B010D0A004E65787400410002
:100DA4003300320031004200360035003400430085
:100DB4003900380037004400230030002A002D2D6C
:100DC4002D2D2D2D2D2D2D2D2D2D2D2D2D2D2D2D4F
:100DD4002D2D2D2D2D2D2D2D2D2D2D2D2D2D2D2D3F
:100DE4002D2D2D2D2D2D2D2D2D2D2D2D2D2D2D2D2F
:100DF4002D2D2D2D2D2D2D2D2D2D2D2D2D2D2D2D1F
:0A0E04002D2D2D2D2D2D2D2D00007C
:00000001FF
